{
  "transactions": [
    {
      "hash": "0x3947b48e7eef3d053f4fb69e4a517a5a319c7ac387fe3c81689f95a7f8cd8a41",
      "transactionType": "CALL",
      "contractName": null,
      "contractAddress": "0xd2b93a17c31619babb1b79c5bd0b273b92df8067",
      "function": "mintNft(string)",
      "arguments": [
        "https://ipfs.io/ipfs/QmSsYRx3LpDAb1GZQm7zZ1AuHZjfbPkD6J7s9r41xu1mf8?filename=pug.png"
      ],
      "transaction": {
        "from": "0xedee7b88d90cdca602bcfb6c4993ec1d643af05a",
        "to": "0xd2b93a17c31619babb1b79c5bd0b273b92df8067",
        "gas": "0x41453",
        "value": "0x0",
        "input": "0xda86f4a90000000000000000000000000000000000000000000000000000000000000020000000000000000000000000000000000000000000000000000000000000005468747470733a2f2f697066732e696f2f697066732f516d5373595278334c7044416231475a516d377a5a314175485a6a6662506b44364a3773397234317875316d66383f66696c656e616d653d7075672e706e67000000000000000000000000",
        "nonce": "0x17",
        "chainId": "0xaa36a7"
      },
      "additionalContracts": [],
      "isFixedGasLimit": false
    }
  ],
  "receipts": [
    {
      "status": "0x1",
      "cumulativeGasUsed": "0xfc1722",
      "logs": [
        {
          "address": "0xd2b93a17c31619babb1b79c5bd0b273b92df8067",
          "topics": [
            "0xddf252ad1be2c89b69c2b068fc378daa952ba7f163c4a11628f55a4df523b3ef",
            "0x0000000000000000000000000000000000000000000000000000000000000000",
            "0x000000000000000000000000edee7b88d90cdca602bcfb6c4993ec1d643af05a",
            "0x0000000000000000000000000000000000000000000000000000000000000000"
          ],
          "data": "0x",
          "blockHash": "0x61d352bb3fd54247460e0c057147e5dffc3e2ef7ef565ec4f1cc23ecfedc6f93",
          "blockNumber": "0x7e1227",
          "blockTimestamp": "0x6818ea4c",
          "transactionHash": "0x3947b48e7eef3d053f4fb69e4a517a5a319c7ac387fe3c81689f95a7f8cd8a41",
          "transactionIndex": "0x84",
          "logIndex": "0x10d",
          "removed": false
        }
      ],
      "logsBloom": "0x00000000000000000000000000000000000000000000000000000000000000040000000000000000000000000000000000000000000000000000000000000000000000000800000000000008000000000000000000000000000000000000000000000000020000000000000000000800000000000000000000000010000000000000000000000000000000000000000000000000000000000000000000000000000080000000000000000000000000000000000000000000000000000000000000080002000000000000000000400000000000000000000000000000000020000000020000000000000000000000000000000000000000000000000000000000",
      "type": "0x2",
      "transactionHash": "0x3947b48e7eef3d053f4fb69e4a517a5a319c7ac387fe3c81689f95a7f8cd8a41",
      "transactionIndex": "0x84",
      "blockHash": "0x61d352bb3fd54247460e0c057147e5dffc3e2ef7ef565ec4f1cc23ecfedc6f93",
      "blockNumber": "0x7e1227",
      "gasUsed": "0x2ca12",
      "effectiveGasPrice": "0xd0c06e65",
      "from": "0xedee7b88d90cdca602bcfb6c4993ec1d643af05a",
      "to": "0xd2b93a17c31619babb1b79c5bd0b273b92df8067",
      "contractAddress": null
    }
  ],
  "libraries": [],
  "pending": [],
  "returns": {},
  "timestamp": 1746463310,
  "chain": 11155111,
  "commit": null
}